{"contracts/Box.sol":{"Box":{"abi":[{"inputs":[],"stateMutability":"nonpayable","type":"constructor"},{"anonymous":false,"inputs":[{"indexed":false,"internalType":"uint256","name":"tokenId","type":"uint256"},{"indexed":false,"internalType":"string","name":"name","type":"string"},{"indexed":false,"internalType":"uint256","name":"valuation","type":"uint256"}],"name":"CompanyCreated","type":"event"},{"anonymous":false,"inputs":[{"indexed":false,"internalType":"uint256","name":"tokenId","type":"uint256"},{"indexed":false,"internalType":"uint256","name":"milestonesCompleted","type":"uint256"}],"name":"MilestoneCompleted","type":"event"},{"anonymous":false,"inputs":[{"indexed":false,"internalType":"uint256","name":"tokenId","type":"uint256"},{"indexed":false,"internalType":"uint256","name":"newValuation","type":"uint256"}],"name":"ValuationUpdated","type":"event"},{"inputs":[{"internalType":"uint256","name":"tokenId","type":"uint256"}],"name":"completeMilestone","outputs":[],"stateMutability":"nonpayable","type":"function"},{"inputs":[{"internalType":"uint256","name":"tokenId","type":"uint256"}],"name":"getCompanyDetails","outputs":[{"internalType":"string","name":"","type":"string"},{"internalType":"uint256","name":"","type":"uint256"},{"internalType":"uint256","name":"","type":"uint256"}],"stateMutability":"view","type":"function"},{"inputs":[{"internalType":"string","name":"name","type":"string"},{"internalType":"uint256","name":"initialValuation","type":"uint256"}],"name":"mintCompany","outputs":[],"stateMutability":"nonpayable","type":"function"},{"inputs":[{"internalType":"uint256","name":"tokenId","type":"uint256"},{"internalType":"uint256","name":"newValuation","type":"uint256"}],"name":"updateValuation","outputs":[],"stateMutability":"nonpayable","type":"function"}],"evm":{"bytecode":{"linkReferences":{},"object":"608060405234801561001057600080fd5b50610e9d806100206000396000f3fe608060405234801561001057600080fd5b506004361061004c5760003560e01c80636dc0fc6b14610051578063852ea2031461006d578063ce271c0d14610089578063daf64aa5146100a5575b600080fd5b61006b60048036038101906100669190610578565b6100d7565b005b610087600480360381019061008291906105b8565b610173565b005b6100a3600480360381019061009e919061072b565b610264565b005b6100bf60048036038101906100ba91906105b8565b610400565b6040516100ce93929190610815565b60405180910390f35b600054821061011b576040517f08c379a00000000000000000000000000000000000000000000000000000000081526004016101129061089f565b60405180910390fd5b8060016000848152602001908152602001600020600101819055507f8d45721c0edcd094d637f66e971ce1167f974eed315c9a31b6ce145067760acc82826040516101679291906108bf565b60405180910390a15050565b60005481106101b7576040517f08c379a00000000000000000000000000000000000000000000000000000000081526004016101ae9061089f565b60405180910390fd5b6001600082815260200190815260200160002060020160008154809291906101de90610917565b919050555061138860016000838152602001908152602001600020600101600082825461020b919061095f565b925050819055507f1b7218c0ac23ea9cbe4df603d2b340fbf469a115b73ea3d11460727f445d6be18160016000848152602001908152602001600020600201546040516102599291906108bf565b60405180910390a150565b60008251116102a8576040517f08c379a000000000000000000000000000000000000000000000000000000000815260040161029f906109df565b60405180910390fd5b6000805b600054811015610304578380519060200120600160008381526020019081526020016000206000016040516102e19190610b02565b6040518091039020036102f75760019150610304565b80806001019150506102ac565b508015610346576040517f08c379a000000000000000000000000000000000000000000000000000000000815260040161033d90610b8b565b60405180910390fd5b600080549050604051806060016040528085815260200184815260200160008152506001600083815260200190815260200160002060008201518160000190816103909190610d57565b5060208201518160010155604082015181600201559050506000808154809291906103ba90610917565b91905055507fd1626da1bd8e455cc3bfd164e6602b3ac7b6a25e98dad1ef603b0914c739546b8185856040516103f293929190610e29565b60405180910390a150505050565b60606000806000548410610449576040517f08c379a00000000000000000000000000000000000000000000000000000000081526004016104409061089f565b60405180910390fd5b60006001600086815260200190815260200160002060405180606001604052908160008201805461047990610a2e565b80601f01602080910402602001604051908101604052809291908181526020018280546104a590610a2e565b80156104f25780601f106104c7576101008083540402835291602001916104f2565b820191906000526020600020905b8154815290600101906020018083116104d557829003601f168201915b50505050508152602001600182015481526020016002820154815250509050806000015181602001518260400151935093509350509193909250565b6000604051905090565b600080fd5b600080fd5b6000819050919050565b61055581610542565b811461056057600080fd5b50565b6000813590506105728161054c565b92915050565b6000806040838503121561058f5761058e610538565b5b600061059d85828601610563565b92505060206105ae85828601610563565b9150509250929050565b6000602082840312156105ce576105cd610538565b5b60006105dc84828501610563565b91505092915050565b600080fd5b600080fd5b6000601f19601f8301169050919050565b7f4e487b7100000000000000000000000000000000000000000000000000000000600052604160045260246000fd5b610638826105ef565b810181811067ffffffffffffffff8211171561065757610656610600565b5b80604052505050565b600061066a61052e565b9050610676828261062f565b919050565b600067ffffffffffffffff82111561069657610695610600565b5b61069f826105ef565b9050602081019050919050565b82818337600083830152505050565b60006106ce6106c98461067b565b610660565b9050828152602081018484840111156106ea576106e96105ea565b5b6106f58482856106ac565b509392505050565b600082601f830112610712576107116105e5565b5b81356107228482602086016106bb565b91505092915050565b6000806040838503121561074257610741610538565b5b600083013567ffffffffffffffff8111156107605761075f61053d565b5b61076c858286016106fd565b925050602061077d85828601610563565b9150509250929050565b600081519050919050565b600082825260208201905092915050565b60005b838110156107c15780820151818401526020810190506107a6565b60008484015250505050565b60006107d882610787565b6107e28185610792565b93506107f28185602086016107a3565b6107fb816105ef565b840191505092915050565b61080f81610542565b82525050565b6000606082019050818103600083015261082f81866107cd565b905061083e6020830185610806565b61084b6040830184610806565b949350505050565b7f546f6b656e20646f6573206e6f74206578697374000000000000000000000000600082015250565b6000610889601483610792565b915061089482610853565b602082019050919050565b600060208201905081810360008301526108b88161087c565b9050919050565b60006040820190506108d46000830185610806565b6108e16020830184610806565b9392505050565b7f4e487b7100000000000000000000000000000000000000000000000000000000600052601160045260246000fd5b600061092282610542565b91507fffffffffffffffffffffffffffffffffffffffffffffffffffffffffffffffff8203610954576109536108e8565b5b600182019050919050565b600061096a82610542565b915061097583610542565b925082820190508082111561098d5761098c6108e8565b5b92915050565b7f436f6d70616e79206e616d652063616e6e6f7420626520656d70747900000000600082015250565b60006109c9601c83610792565b91506109d482610993565b602082019050919050565b600060208201905081810360008301526109f8816109bc565b9050919050565b7f4e487b7100000000000000000000000000000000000000000000000000000000600052602260045260246000fd5b60006002820490506001821680610a4657607f821691505b602082108103610a5957610a586109ff565b5b50919050565b600081905092915050565b60008190508160005260206000209050919050565b60008154610a8c81610a2e565b610a968186610a5f565b94506001821660008114610ab15760018114610ac657610af9565b60ff1983168652811515820286019350610af9565b610acf85610a6a565b60005b83811015610af157815481890152600182019150602081019050610ad2565b838801955050505b50505092915050565b6000610b0e8284610a7f565b915081905092915050565b7f4120636f6d70616e7920776974682074686973206e616d6520616c726561647960008201527f2065786973747300000000000000000000000000000000000000000000000000602082015250565b6000610b75602783610792565b9150610b8082610b19565b604082019050919050565b60006020820190508181036000830152610ba481610b68565b9050919050565b60008190508160005260206000209050919050565b60006020601f8301049050919050565b600082821b905092915050565b600060088302610c0d7fffffffffffffffffffffffffffffffffffffffffffffffffffffffffffffffff82610bd0565b610c178683610bd0565b95508019841693508086168417925050509392505050565b6000819050919050565b6000610c54610c4f610c4a84610542565b610c2f565b610542565b9050919050565b6000819050919050565b610c6e83610c39565b610c82610c7a82610c5b565b848454610bdd565b825550505050565b600090565b610c97610c8a565b610ca2818484610c65565b505050565b5b81811015610cc657610cbb600082610c8f565b600181019050610ca8565b5050565b601f821115610d0b57610cdc81610bab565b610ce584610bc0565b81016020851015610cf4578190505b610d08610d0085610bc0565b830182610ca7565b50505b505050565b600082821c905092915050565b6000610d2e60001984600802610d10565b1980831691505092915050565b6000610d478383610d1d565b9150826002028217905092915050565b610d6082610787565b67ffffffffffffffff811115610d7957610d78610600565b5b610d838254610a2e565b610d8e828285610cca565b600060209050601f831160018114610dc15760008415610daf578287015190505b610db98582610d3b565b865550610e21565b601f198416610dcf86610bab565b60005b82811015610df757848901518255600182019150602085019450602081019050610dd2565b86831015610e145784890151610e10601f891682610d1d565b8355505b6001600288020188555050505b505050505050565b6000606082019050610e3e6000830186610806565b8181036020830152610e5081856107cd565b9050610e5f6040830184610806565b94935050505056fea26469706673582212206d3aabc11b449d46ee0aab9232351472f424497b446295f9834939324ae30b4c64736f6c63430008180033","opcodes":"PUSH1 0x80 PUSH1 0x40 MSTORE CALLVALUE DUP1 ISZERO PUSH2 0x10 JUMPI PUSH1 0x0 DUP1 REVERT JUMPDEST POP PUSH2 0xE9D DUP1 PUSH2 0x20 PUSH1 0x0 CODECOPY PUSH1 0x0 RETURN INVALID PUSH1 0x80 PUSH1 0x40 MSTORE CALLVALUE DUP1 ISZERO PUSH2 0x10 JUMPI PUSH1 0x0 DUP1 REVERT JUMPDEST POP PUSH1 0x4 CALLDATASIZE LT PUSH2 0x4C JUMPI PUSH1 0x0 CALLDATALOAD PUSH1 0xE0 SHR DUP1 PUSH4 0x6DC0FC6B EQ PUSH2 0x51 JUMPI DUP1 PUSH4 0x852EA203 EQ PUSH2 0x6D JUMPI DUP1 PUSH4 0xCE271C0D EQ PUSH2 0x89 JUMPI DUP1 PUSH4 0xDAF64AA5 EQ PUSH2 0xA5 JUMPI JUMPDEST PUSH1 0x0 DUP1 REVERT JUMPDEST PUSH2 0x6B PUSH1 0x4 DUP1 CALLDATASIZE SUB DUP2 ADD SWAP1 PUSH2 0x66 SWAP2 SWAP1 PUSH2 0x578 JUMP JUMPDEST PUSH2 0xD7 JUMP JUMPDEST STOP JUMPDEST PUSH2 0x87 PUSH1 0x4 DUP1 CALLDATASIZE SUB DUP2 ADD SWAP1 PUSH2 0x82 SWAP2 SWAP1 PUSH2 0x5B8 JUMP JUMPDEST PUSH2 0x173 JUMP JUMPDEST STOP JUMPDEST PUSH2 0xA3 PUSH1 0x4 DUP1 CALLDATASIZE SUB DUP2 ADD SWAP1 PUSH2 0x9E SWAP2 SWAP1 PUSH2 0x72B JUMP JUMPDEST PUSH2 0x264 JUMP JUMPDEST STOP JUMPDEST PUSH2 0xBF PUSH1 0x4 DUP1 CALLDATASIZE SUB DUP2 ADD SWAP1 PUSH2 0xBA SWAP2 SWAP1 PUSH2 0x5B8 JUMP JUMPDEST PUSH2 0x400 JUMP JUMPDEST PUSH1 0x40 MLOAD PUSH2 0xCE SWAP4 SWAP3 SWAP2 SWAP1 PUSH2 0x815 JUMP JUMPDEST PUSH1 0x40 MLOAD DUP1 SWAP2 SUB SWAP1 RETURN JUMPDEST PUSH1 0x0 SLOAD DUP3 LT PUSH2 0x11B JUMPI PUSH1 0x40 MLOAD PUSH32 0x8C379A000000000000000000000000000000000000000000000000000000000 DUP2 MSTORE PUSH1 0x4 ADD PUSH2 0x112 SWAP1 PUSH2 0x89F JUMP JUMPDEST PUSH1 0x40 MLOAD DUP1 SWAP2 SUB SWAP1 REVERT JUMPDEST DUP1 PUSH1 0x1 PUSH1 0x0 DUP5 DUP2 MSTORE PUSH1 0x20 ADD SWAP1 DUP2 MSTORE PUSH1 0x20 ADD PUSH1 0x0 KECCAK256 PUSH1 0x1 ADD DUP2 SWAP1 SSTORE POP PUSH32 0x8D45721C0EDCD094D637F66E971CE1167F974EED315C9A31B6CE145067760ACC DUP3 DUP3 PUSH1 0x40 MLOAD PUSH2 0x167 SWAP3 SWAP2 SWAP1 PUSH2 0x8BF JUMP JUMPDEST PUSH1 0x40 MLOAD DUP1 SWAP2 SUB SWAP1 LOG1 POP POP JUMP JUMPDEST PUSH1 0x0 SLOAD DUP2 LT PUSH2 0x1B7 JUMPI PUSH1 0x40 MLOAD PUSH32 0x8C379A000000000000000000000000000000000000000000000000000000000 DUP2 MSTORE PUSH1 0x4 ADD PUSH2 0x1AE SWAP1 PUSH2 0x89F JUMP JUMPDEST PUSH1 0x40 MLOAD DUP1 SWAP2 SUB SWAP1 REVERT JUMPDEST PUSH1 0x1 PUSH1 0x0 DUP3 DUP2 MSTORE PUSH1 0x20 ADD SWAP1 DUP2 MSTORE PUSH1 0x20 ADD PUSH1 0x0 KECCAK256 PUSH1 0x2 ADD PUSH1 0x0 DUP2 SLOAD DUP1 SWAP3 SWAP2 SWAP1 PUSH2 0x1DE SWAP1 PUSH2 0x917 JUMP JUMPDEST SWAP2 SWAP1 POP SSTORE POP PUSH2 0x1388 PUSH1 0x1 PUSH1 0x0 DUP4 DUP2 MSTORE PUSH1 0x20 ADD SWAP1 DUP2 MSTORE PUSH1 0x20 ADD PUSH1 0x0 KECCAK256 PUSH1 0x1 ADD PUSH1 0x0 DUP3 DUP3 SLOAD PUSH2 0x20B SWAP2 SWAP1 PUSH2 0x95F JUMP JUMPDEST SWAP3 POP POP DUP2 SWAP1 SSTORE POP PUSH32 0x1B7218C0AC23EA9CBE4DF603D2B340FBF469A115B73EA3D11460727F445D6BE1 DUP2 PUSH1 0x1 PUSH1 0x0 DUP5 DUP2 MSTORE PUSH1 0x20 ADD SWAP1 DUP2 MSTORE PUSH1 0x20 ADD PUSH1 0x0 KECCAK256 PUSH1 0x2 ADD SLOAD PUSH1 0x40 MLOAD PUSH2 0x259 SWAP3 SWAP2 SWAP1 PUSH2 0x8BF JUMP JUMPDEST PUSH1 0x40 MLOAD DUP1 SWAP2 SUB SWAP1 LOG1 POP JUMP JUMPDEST PUSH1 0x0 DUP3 MLOAD GT PUSH2 0x2A8 JUMPI PUSH1 0x40 MLOAD PUSH32 0x8C379A000000000000000000000000000000000000000000000000000000000 DUP2 MSTORE PUSH1 0x4 ADD PUSH2 0x29F SWAP1 PUSH2 0x9DF JUMP JUMPDEST PUSH1 0x40 MLOAD DUP1 SWAP2 SUB SWAP1 REVERT JUMPDEST PUSH1 0x0 DUP1 JUMPDEST PUSH1 0x0 SLOAD DUP2 LT ISZERO PUSH2 0x304 JUMPI DUP4 DUP1 MLOAD SWAP1 PUSH1 0x20 ADD KECCAK256 PUSH1 0x1 PUSH1 0x0 DUP4 DUP2 MSTORE PUSH1 0x20 ADD SWAP1 DUP2 MSTORE PUSH1 0x20 ADD PUSH1 0x0 KECCAK256 PUSH1 0x0 ADD PUSH1 0x40 MLOAD PUSH2 0x2E1 SWAP2 SWAP1 PUSH2 0xB02 JUMP JUMPDEST PUSH1 0x40 MLOAD DUP1 SWAP2 SUB SWAP1 KECCAK256 SUB PUSH2 0x2F7 JUMPI PUSH1 0x1 SWAP2 POP PUSH2 0x304 JUMP JUMPDEST DUP1 DUP1 PUSH1 0x1 ADD SWAP2 POP POP PUSH2 0x2AC JUMP JUMPDEST POP DUP1 ISZERO PUSH2 0x346 JUMPI PUSH1 0x40 MLOAD PUSH32 0x8C379A000000000000000000000000000000000000000000000000000000000 DUP2 MSTORE PUSH1 0x4 ADD PUSH2 0x33D SWAP1 PUSH2 0xB8B JUMP JUMPDEST PUSH1 0x40 MLOAD DUP1 SWAP2 SUB SWAP1 REVERT JUMPDEST PUSH1 0x0 DUP1 SLOAD SWAP1 POP PUSH1 0x40 MLOAD DUP1 PUSH1 0x60 ADD PUSH1 0x40 MSTORE DUP1 DUP6 DUP2 MSTORE PUSH1 0x20 ADD DUP5 DUP2 MSTORE PUSH1 0x20 ADD PUSH1 0x0 DUP2 MSTORE POP PUSH1 0x1 PUSH1 0x0 DUP4 DUP2 MSTORE PUSH1 0x20 ADD SWAP1 DUP2 MSTORE PUSH1 0x20 ADD PUSH1 0x0 KECCAK256 PUSH1 0x0 DUP3 ADD MLOAD DUP2 PUSH1 0x0 ADD SWAP1 DUP2 PUSH2 0x390 SWAP2 SWAP1 PUSH2 0xD57 JUMP JUMPDEST POP PUSH1 0x20 DUP3 ADD MLOAD DUP2 PUSH1 0x1 ADD SSTORE PUSH1 0x40 DUP3 ADD MLOAD DUP2 PUSH1 0x2 ADD SSTORE SWAP1 POP POP PUSH1 0x0 DUP1 DUP2 SLOAD DUP1 SWAP3 SWAP2 SWAP1 PUSH2 0x3BA SWAP1 PUSH2 0x917 JUMP JUMPDEST SWAP2 SWAP1 POP SSTORE POP PUSH32 0xD1626DA1BD8E455CC3BFD164E6602B3AC7B6A25E98DAD1EF603B0914C739546B DUP2 DUP6 DUP6 PUSH1 0x40 MLOAD PUSH2 0x3F2 SWAP4 SWAP3 SWAP2 SWAP1 PUSH2 0xE29 JUMP JUMPDEST PUSH1 0x40 MLOAD DUP1 SWAP2 SUB SWAP1 LOG1 POP POP POP POP JUMP JUMPDEST PUSH1 0x60 PUSH1 0x0 DUP1 PUSH1 0x0 SLOAD DUP5 LT PUSH2 0x449 JUMPI PUSH1 0x40 MLOAD PUSH32 0x8C379A000000000000000000000000000000000000000000000000000000000 DUP2 MSTORE PUSH1 0x4 ADD PUSH2 0x440 SWAP1 PUSH2 0x89F JUMP JUMPDEST PUSH1 0x40 MLOAD DUP1 SWAP2 SUB SWAP1 REVERT JUMPDEST PUSH1 0x0 PUSH1 0x1 PUSH1 0x0 DUP7 DUP2 MSTORE PUSH1 0x20 ADD SWAP1 DUP2 MSTORE PUSH1 0x20 ADD PUSH1 0x0 KECCAK256 PUSH1 0x40 MLOAD DUP1 PUSH1 0x60 ADD PUSH1 0x40 MSTORE SWAP1 DUP2 PUSH1 0x0 DUP3 ADD DUP1 SLOAD PUSH2 0x479 SWAP1 PUSH2 0xA2E JUMP JUMPDEST DUP1 PUSH1 0x1F ADD PUSH1 0x20 DUP1 SWAP2 DIV MUL PUSH1 0x20 ADD PUSH1 0x40 MLOAD SWAP1 DUP2 ADD PUSH1 0x40 MSTORE DUP1 SWAP3 SWAP2 SWAP1 DUP2 DUP2 MSTORE PUSH1 0x20 ADD DUP3 DUP1 SLOAD PUSH2 0x4A5 SWAP1 PUSH2 0xA2E JUMP JUMPDEST DUP1 ISZERO PUSH2 0x4F2 JUMPI DUP1 PUSH1 0x1F LT PUSH2 0x4C7 JUMPI PUSH2 0x100 DUP1 DUP4 SLOAD DIV MUL DUP4 MSTORE SWAP2 PUSH1 0x20 ADD SWAP2 PUSH2 0x4F2 JUMP JUMPDEST DUP3 ADD SWAP2 SWAP1 PUSH1 0x0 MSTORE PUSH1 0x20 PUSH1 0x0 KECCAK256 SWAP1 JUMPDEST DUP2 SLOAD DUP2 MSTORE SWAP1 PUSH1 0x1 ADD SWAP1 PUSH1 0x20 ADD DUP1 DUP4 GT PUSH2 0x4D5 JUMPI DUP3 SWAP1 SUB PUSH1 0x1F AND DUP3 ADD SWAP2 JUMPDEST POP POP POP POP POP DUP2 MSTORE PUSH1 0x20 ADD PUSH1 0x1 DUP3 ADD SLOAD DUP2 MSTORE PUSH1 0x20 ADD PUSH1 0x2 DUP3 ADD SLOAD DUP2 MSTORE POP POP SWAP1 POP DUP1 PUSH1 0x0 ADD MLOAD DUP2 PUSH1 0x20 ADD MLOAD DUP3 PUSH1 0x40 ADD MLOAD SWAP4 POP SWAP4 POP SWAP4 POP POP SWAP2 SWAP4 SWAP1 SWAP3 POP JUMP JUMPDEST PUSH1 0x0 PUSH1 0x40 MLOAD SWAP1 POP SWAP1 JUMP JUMPDEST PUSH1 0x0 DUP1 REVERT JUMPDEST PUSH1 0x0 DUP1 REVERT JUMPDEST PUSH1 0x0 DUP2 SWAP1 POP SWAP2 SWAP1 POP JUMP JUMPDEST PUSH2 0x555 DUP2 PUSH2 0x542 JUMP JUMPDEST DUP2 EQ PUSH2 0x560 JUMPI PUSH1 0x0 DUP1 REVERT JUMPDEST POP JUMP JUMPDEST PUSH1 0x0 DUP2 CALLDATALOAD SWAP1 POP PUSH2 0x572 DUP2 PUSH2 0x54C JUMP JUMPDEST SWAP3 SWAP2 POP POP JUMP JUMPDEST PUSH1 0x0 DUP1 PUSH1 0x40 DUP4 DUP6 SUB SLT ISZERO PUSH2 0x58F JUMPI PUSH2 0x58E PUSH2 0x538 JUMP JUMPDEST JUMPDEST PUSH1 0x0 PUSH2 0x59D DUP6 DUP3 DUP7 ADD PUSH2 0x563 JUMP JUMPDEST SWAP3 POP POP PUSH1 0x20 PUSH2 0x5AE DUP6 DUP3 DUP7 ADD PUSH2 0x563 JUMP JUMPDEST SWAP2 POP POP SWAP3 POP SWAP3 SWAP1 POP JUMP JUMPDEST PUSH1 0x0 PUSH1 0x20 DUP3 DUP5 SUB SLT ISZERO PUSH2 0x5CE JUMPI PUSH2 0x5CD PUSH2 0x538 JUMP JUMPDEST JUMPDEST PUSH1 0x0 PUSH2 0x5DC DUP5 DUP3 DUP6 ADD PUSH2 0x563 JUMP JUMPDEST SWAP2 POP POP SWAP3 SWAP2 POP POP JUMP JUMPDEST PUSH1 0x0 DUP1 REVERT JUMPDEST PUSH1 0x0 DUP1 REVERT JUMPDEST PUSH1 0x0 PUSH1 0x1F NOT PUSH1 0x1F DUP4 ADD AND SWAP1 POP SWAP2 SWAP1 POP JUMP JUMPDEST PUSH32 0x4E487B7100000000000000000000000000000000000000000000000000000000 PUSH1 0x0 MSTORE PUSH1 0x41 PUSH1 0x4 MSTORE PUSH1 0x24 PUSH1 0x0 REVERT JUMPDEST PUSH2 0x638 DUP3 PUSH2 0x5EF JUMP JUMPDEST DUP2 ADD DUP2 DUP2 LT PUSH8 0xFFFFFFFFFFFFFFFF DUP3 GT OR ISZERO PUSH2 0x657 JUMPI PUSH2 0x656 PUSH2 0x600 JUMP JUMPDEST JUMPDEST DUP1 PUSH1 0x40 MSTORE POP POP POP JUMP JUMPDEST PUSH1 0x0 PUSH2 0x66A PUSH2 0x52E JUMP JUMPDEST SWAP1 POP PUSH2 0x676 DUP3 DUP3 PUSH2 0x62F JUMP JUMPDEST SWAP2 SWAP1 POP JUMP JUMPDEST PUSH1 0x0 PUSH8 0xFFFFFFFFFFFFFFFF DUP3 GT ISZERO PUSH2 0x696 JUMPI PUSH2 0x695 PUSH2 0x600 JUMP JUMPDEST JUMPDEST PUSH2 0x69F DUP3 PUSH2 0x5EF JUMP JUMPDEST SWAP1 POP PUSH1 0x20 DUP2 ADD SWAP1 POP SWAP2 SWAP1 POP JUMP JUMPDEST DUP3 DUP2 DUP4 CALLDATACOPY PUSH1 0x0 DUP4 DUP4 ADD MSTORE POP POP POP JUMP JUMPDEST PUSH1 0x0 PUSH2 0x6CE PUSH2 0x6C9 DUP5 PUSH2 0x67B JUMP JUMPDEST PUSH2 0x660 JUMP JUMPDEST SWAP1 POP DUP3 DUP2 MSTORE PUSH1 0x20 DUP2 ADD DUP5 DUP5 DUP5 ADD GT ISZERO PUSH2 0x6EA JUMPI PUSH2 0x6E9 PUSH2 0x5EA JUMP JUMPDEST JUMPDEST PUSH2 0x6F5 DUP5 DUP3 DUP6 PUSH2 0x6AC JUMP JUMPDEST POP SWAP4 SWAP3 POP POP POP JUMP JUMPDEST PUSH1 0x0 DUP3 PUSH1 0x1F DUP4 ADD SLT PUSH2 0x712 JUMPI PUSH2 0x711 PUSH2 0x5E5 JUMP JUMPDEST JUMPDEST DUP2 CALLDATALOAD PUSH2 0x722 DUP5 DUP3 PUSH1 0x20 DUP7 ADD PUSH2 0x6BB JUMP JUMPDEST SWAP2 POP POP SWAP3 SWAP2 POP POP JUMP JUMPDEST PUSH1 0x0 DUP1 PUSH1 0x40 DUP4 DUP6 SUB SLT ISZERO PUSH2 0x742 JUMPI PUSH2 0x741 PUSH2 0x538 JUMP JUMPDEST JUMPDEST PUSH1 0x0 DUP4 ADD CALLDATALOAD PUSH8 0xFFFFFFFFFFFFFFFF DUP2 GT ISZERO PUSH2 0x760 JUMPI PUSH2 0x75F PUSH2 0x53D JUMP JUMPDEST JUMPDEST PUSH2 0x76C DUP6 DUP3 DUP7 ADD PUSH2 0x6FD JUMP JUMPDEST SWAP3 POP POP PUSH1 0x20 PUSH2 0x77D DUP6 DUP3 DUP7 ADD PUSH2 0x563 JUMP JUMPDEST SWAP2 POP POP SWAP3 POP SWAP3 SWAP1 POP JUMP JUMPDEST PUSH1 0x0 DUP2 MLOAD SWAP1 POP SWAP2 SWAP1 POP JUMP JUMPDEST PUSH1 0x0 DUP3 DUP3 MSTORE PUSH1 0x20 DUP3 ADD SWAP1 POP SWAP3 SWAP2 POP POP JUMP JUMPDEST PUSH1 0x0 JUMPDEST DUP4 DUP2 LT ISZERO PUSH2 0x7C1 JUMPI DUP1 DUP3 ADD MLOAD DUP2 DUP5 ADD MSTORE PUSH1 0x20 DUP2 ADD SWAP1 POP PUSH2 0x7A6 JUMP JUMPDEST PUSH1 0x0 DUP5 DUP5 ADD MSTORE POP POP POP POP JUMP JUMPDEST PUSH1 0x0 PUSH2 0x7D8 DUP3 PUSH2 0x787 JUMP JUMPDEST PUSH2 0x7E2 DUP2 DUP6 PUSH2 0x792 JUMP JUMPDEST SWAP4 POP PUSH2 0x7F2 DUP2 DUP6 PUSH1 0x20 DUP7 ADD PUSH2 0x7A3 JUMP JUMPDEST PUSH2 0x7FB DUP2 PUSH2 0x5EF JUMP JUMPDEST DUP5 ADD SWAP2 POP POP SWAP3 SWAP2 POP POP JUMP JUMPDEST PUSH2 0x80F DUP2 PUSH2 0x542 JUMP JUMPDEST DUP3 MSTORE POP POP JUMP JUMPDEST PUSH1 0x0 PUSH1 0x60 DUP3 ADD SWAP1 POP DUP2 DUP2 SUB PUSH1 0x0 DUP4 ADD MSTORE PUSH2 0x82F DUP2 DUP7 PUSH2 0x7CD JUMP JUMPDEST SWAP1 POP PUSH2 0x83E PUSH1 0x20 DUP4 ADD DUP6 PUSH2 0x806 JUMP JUMPDEST PUSH2 0x84B PUSH1 0x40 DUP4 ADD DUP5 PUSH2 0x806 JUMP JUMPDEST SWAP5 SWAP4 POP POP POP POP JUMP JUMPDEST PUSH32 0x546F6B656E20646F6573206E6F74206578697374000000000000000000000000 PUSH1 0x0 DUP3 ADD MSTORE POP JUMP JUMPDEST PUSH1 0x0 PUSH2 0x889 PUSH1 0x14 DUP4 PUSH2 0x792 JUMP JUMPDEST SWAP2 POP PUSH2 0x894 DUP3 PUSH2 0x853 JUMP JUMPDEST PUSH1 0x20 DUP3 ADD SWAP1 POP SWAP2 SWAP1 POP JUMP JUMPDEST PUSH1 0x0 PUSH1 0x20 DUP3 ADD SWAP1 POP DUP2 DUP2 SUB PUSH1 0x0 DUP4 ADD MSTORE PUSH2 0x8B8 DUP2 PUSH2 0x87C JUMP JUMPDEST SWAP1 POP SWAP2 SWAP1 POP JUMP JUMPDEST PUSH1 0x0 PUSH1 0x40 DUP3 ADD SWAP1 POP PUSH2 0x8D4 PUSH1 0x0 DUP4 ADD DUP6 PUSH2 0x806 JUMP JUMPDEST PUSH2 0x8E1 PUSH1 0x20 DUP4 ADD DUP5 PUSH2 0x806 JUMP JUMPDEST SWAP4 SWAP3 POP POP POP JUMP JUMPDEST PUSH32 0x4E487B7100000000000000000000000000000000000000000000000000000000 PUSH1 0x0 MSTORE PUSH1 0x11 PUSH1 0x4 MSTORE PUSH1 0x24 PUSH1 0x0 REVERT JUMPDEST PUSH1 0x0 PUSH2 0x922 DUP3 PUSH2 0x542 JUMP JUMPDEST SWAP2 POP PUSH32 0xFFFFFFFFFFFFFFFFFFFFFFFFFFFFFFFFFFFFFFFFFFFFFFFFFFFFFFFFFFFFFFFF DUP3 SUB PUSH2 0x954 JUMPI PUSH2 0x953 PUSH2 0x8E8 JUMP JUMPDEST JUMPDEST PUSH1 0x1 DUP3 ADD SWAP1 POP SWAP2 SWAP1 POP JUMP JUMPDEST PUSH1 0x0 PUSH2 0x96A DUP3 PUSH2 0x542 JUMP JUMPDEST SWAP2 POP PUSH2 0x975 DUP4 PUSH2 0x542 JUMP JUMPDEST SWAP3 POP DUP3 DUP3 ADD SWAP1 POP DUP1 DUP3 GT ISZERO PUSH2 0x98D JUMPI PUSH2 0x98C PUSH2 0x8E8 JUMP JUMPDEST JUMPDEST SWAP3 SWAP2 POP POP JUMP JUMPDEST PUSH32 0x436F6D70616E79206E616D652063616E6E6F7420626520656D70747900000000 PUSH1 0x0 DUP3 ADD MSTORE POP JUMP JUMPDEST PUSH1 0x0 PUSH2 0x9C9 PUSH1 0x1C DUP4 PUSH2 0x792 JUMP JUMPDEST SWAP2 POP PUSH2 0x9D4 DUP3 PUSH2 0x993 JUMP JUMPDEST PUSH1 0x20 DUP3 ADD SWAP1 POP SWAP2 SWAP1 POP JUMP JUMPDEST PUSH1 0x0 PUSH1 0x20 DUP3 ADD SWAP1 POP DUP2 DUP2 SUB PUSH1 0x0 DUP4 ADD MSTORE PUSH2 0x9F8 DUP2 PUSH2 0x9BC JUMP JUMPDEST SWAP1 POP SWAP2 SWAP1 POP JUMP JUMPDEST PUSH32 0x4E487B7100000000000000000000000000000000000000000000000000000000 PUSH1 0x0 MSTORE PUSH1 0x22 PUSH1 0x4 MSTORE PUSH1 0x24 PUSH1 0x0 REVERT JUMPDEST PUSH1 0x0 PUSH1 0x2 DUP3 DIV SWAP1 POP PUSH1 0x1 DUP3 AND DUP1 PUSH2 0xA46 JUMPI PUSH1 0x7F DUP3 AND SWAP2 POP JUMPDEST PUSH1 0x20 DUP3 LT DUP2 SUB PUSH2 0xA59 JUMPI PUSH2 0xA58 PUSH2 0x9FF JUMP JUMPDEST JUMPDEST POP SWAP2 SWAP1 POP JUMP JUMPDEST PUSH1 0x0 DUP2 SWAP1 POP SWAP3 SWAP2 POP POP JUMP JUMPDEST PUSH1 0x0 DUP2 SWAP1 POP DUP2 PUSH1 0x0 MSTORE PUSH1 0x20 PUSH1 0x0 KECCAK256 SWAP1 POP SWAP2 SWAP1 POP JUMP JUMPDEST PUSH1 0x0 DUP2 SLOAD PUSH2 0xA8C DUP2 PUSH2 0xA2E JUMP JUMPDEST PUSH2 0xA96 DUP2 DUP7 PUSH2 0xA5F JUMP JUMPDEST SWAP5 POP PUSH1 0x1 DUP3 AND PUSH1 0x0 DUP2 EQ PUSH2 0xAB1 JUMPI PUSH1 0x1 DUP2 EQ PUSH2 0xAC6 JUMPI PUSH2 0xAF9 JUMP JUMPDEST PUSH1 0xFF NOT DUP4 AND DUP7 MSTORE DUP2 ISZERO ISZERO DUP3 MUL DUP7 ADD SWAP4 POP PUSH2 0xAF9 JUMP JUMPDEST PUSH2 0xACF DUP6 PUSH2 0xA6A JUMP JUMPDEST PUSH1 0x0 JUMPDEST DUP4 DUP2 LT ISZERO PUSH2 0xAF1 JUMPI DUP2 SLOAD DUP2 DUP10 ADD MSTORE PUSH1 0x1 DUP3 ADD SWAP2 POP PUSH1 0x20 DUP2 ADD SWAP1 POP PUSH2 0xAD2 JUMP JUMPDEST DUP4 DUP9 ADD SWAP6 POP POP POP JUMPDEST POP POP POP SWAP3 SWAP2 POP POP JUMP JUMPDEST PUSH1 0x0 PUSH2 0xB0E DUP3 DUP5 PUSH2 0xA7F JUMP JUMPDEST SWAP2 POP DUP2 SWAP1 POP SWAP3 SWAP2 POP POP JUMP JUMPDEST PUSH32 0x4120636F6D70616E7920776974682074686973206E616D6520616C7265616479 PUSH1 0x0 DUP3 ADD MSTORE PUSH32 0x2065786973747300000000000000000000000000000000000000000000000000 PUSH1 0x20 DUP3 ADD MSTORE POP JUMP JUMPDEST PUSH1 0x0 PUSH2 0xB75 PUSH1 0x27 DUP4 PUSH2 0x792 JUMP JUMPDEST SWAP2 POP PUSH2 0xB80 DUP3 PUSH2 0xB19 JUMP JUMPDEST PUSH1 0x40 DUP3 ADD SWAP1 POP SWAP2 SWAP1 POP JUMP JUMPDEST PUSH1 0x0 PUSH1 0x20 DUP3 ADD SWAP1 POP DUP2 DUP2 SUB PUSH1 0x0 DUP4 ADD MSTORE PUSH2 0xBA4 DUP2 PUSH2 0xB68 JUMP JUMPDEST SWAP1 POP SWAP2 SWAP1 POP JUMP JUMPDEST PUSH1 0x0 DUP2 SWAP1 POP DUP2 PUSH1 0x0 MSTORE PUSH1 0x20 PUSH1 0x0 KECCAK256 SWAP1 POP SWAP2 SWAP1 POP JUMP JUMPDEST PUSH1 0x0 PUSH1 0x20 PUSH1 0x1F DUP4 ADD DIV SWAP1 POP SWAP2 SWAP1 POP JUMP JUMPDEST PUSH1 0x0 DUP3 DUP3 SHL SWAP1 POP SWAP3 SWAP2 POP POP JUMP JUMPDEST PUSH1 0x0 PUSH1 0x8 DUP4 MUL PUSH2 0xC0D PUSH32 0xFFFFFFFFFFFFFFFFFFFFFFFFFFFFFFFFFFFFFFFFFFFFFFFFFFFFFFFFFFFFFFFF DUP3 PUSH2 0xBD0 JUMP JUMPDEST PUSH2 0xC17 DUP7 DUP4 PUSH2 0xBD0 JUMP JUMPDEST SWAP6 POP DUP1 NOT DUP5 AND SWAP4 POP DUP1 DUP7 AND DUP5 OR SWAP3 POP POP POP SWAP4 SWAP3 POP POP POP JUMP JUMPDEST PUSH1 0x0 DUP2 SWAP1 POP SWAP2 SWAP1 POP JUMP JUMPDEST PUSH1 0x0 PUSH2 0xC54 PUSH2 0xC4F PUSH2 0xC4A DUP5 PUSH2 0x542 JUMP JUMPDEST PUSH2 0xC2F JUMP JUMPDEST PUSH2 0x542 JUMP JUMPDEST SWAP1 POP SWAP2 SWAP1 POP JUMP JUMPDEST PUSH1 0x0 DUP2 SWAP1 POP SWAP2 SWAP1 POP JUMP JUMPDEST PUSH2 0xC6E DUP4 PUSH2 0xC39 JUMP JUMPDEST PUSH2 0xC82 PUSH2 0xC7A DUP3 PUSH2 0xC5B JUMP JUMPDEST DUP5 DUP5 SLOAD PUSH2 0xBDD JUMP JUMPDEST DUP3 SSTORE POP POP POP POP JUMP JUMPDEST PUSH1 0x0 SWAP1 JUMP JUMPDEST PUSH2 0xC97 PUSH2 0xC8A JUMP JUMPDEST PUSH2 0xCA2 DUP2 DUP5 DUP5 PUSH2 0xC65 JUMP JUMPDEST POP POP POP JUMP JUMPDEST JUMPDEST DUP2 DUP2 LT ISZERO PUSH2 0xCC6 JUMPI PUSH2 0xCBB PUSH1 0x0 DUP3 PUSH2 0xC8F JUMP JUMPDEST PUSH1 0x1 DUP2 ADD SWAP1 POP PUSH2 0xCA8 JUMP JUMPDEST POP POP JUMP JUMPDEST PUSH1 0x1F DUP3 GT ISZERO PUSH2 0xD0B JUMPI PUSH2 0xCDC DUP2 PUSH2 0xBAB JUMP JUMPDEST PUSH2 0xCE5 DUP5 PUSH2 0xBC0 JUMP JUMPDEST DUP2 ADD PUSH1 0x20 DUP6 LT ISZERO PUSH2 0xCF4 JUMPI DUP2 SWAP1 POP JUMPDEST PUSH2 0xD08 PUSH2 0xD00 DUP6 PUSH2 0xBC0 JUMP JUMPDEST DUP4 ADD DUP3 PUSH2 0xCA7 JUMP JUMPDEST POP POP JUMPDEST POP POP POP JUMP JUMPDEST PUSH1 0x0 DUP3 DUP3 SHR SWAP1 POP SWAP3 SWAP2 POP POP JUMP JUMPDEST PUSH1 0x0 PUSH2 0xD2E PUSH1 0x0 NOT DUP5 PUSH1 0x8 MUL PUSH2 0xD10 JUMP JUMPDEST NOT DUP1 DUP4 AND SWAP2 POP POP SWAP3 SWAP2 POP POP JUMP JUMPDEST PUSH1 0x0 PUSH2 0xD47 DUP4 DUP4 PUSH2 0xD1D JUMP JUMPDEST SWAP2 POP DUP3 PUSH1 0x2 MUL DUP3 OR SWAP1 POP SWAP3 SWAP2 POP POP JUMP JUMPDEST PUSH2 0xD60 DUP3 PUSH2 0x787 JUMP JUMPDEST PUSH8 0xFFFFFFFFFFFFFFFF DUP2 GT ISZERO PUSH2 0xD79 JUMPI PUSH2 0xD78 PUSH2 0x600 JUMP JUMPDEST JUMPDEST PUSH2 0xD83 DUP3 SLOAD PUSH2 0xA2E JUMP JUMPDEST PUSH2 0xD8E DUP3 DUP3 DUP6 PUSH2 0xCCA JUMP JUMPDEST PUSH1 0x0 PUSH1 0x20 SWAP1 POP PUSH1 0x1F DUP4 GT PUSH1 0x1 DUP2 EQ PUSH2 0xDC1 JUMPI PUSH1 0x0 DUP5 ISZERO PUSH2 0xDAF JUMPI DUP3 DUP8 ADD MLOAD SWAP1 POP JUMPDEST PUSH2 0xDB9 DUP6 DUP3 PUSH2 0xD3B JUMP JUMPDEST DUP7 SSTORE POP PUSH2 0xE21 JUMP JUMPDEST PUSH1 0x1F NOT DUP5 AND PUSH2 0xDCF DUP7 PUSH2 0xBAB JUMP JUMPDEST PUSH1 0x0 JUMPDEST DUP3 DUP2 LT ISZERO PUSH2 0xDF7 JUMPI DUP5 DUP10 ADD MLOAD DUP3 SSTORE PUSH1 0x1 DUP3 ADD SWAP2 POP PUSH1 0x20 DUP6 ADD SWAP5 POP PUSH1 0x20 DUP2 ADD SWAP1 POP PUSH2 0xDD2 JUMP JUMPDEST DUP7 DUP4 LT ISZERO PUSH2 0xE14 JUMPI DUP5 DUP10 ADD MLOAD PUSH2 0xE10 PUSH1 0x1F DUP10 AND DUP3 PUSH2 0xD1D JUMP JUMPDEST DUP4 SSTORE POP JUMPDEST PUSH1 0x1 PUSH1 0x2 DUP9 MUL ADD DUP9 SSTORE POP POP POP JUMPDEST POP POP POP POP POP POP JUMP JUMPDEST PUSH1 0x0 PUSH1 0x60 DUP3 ADD SWAP1 POP PUSH2 0xE3E PUSH1 0x0 DUP4 ADD DUP7 PUSH2 0x806 JUMP JUMPDEST DUP2 DUP2 SUB PUSH1 0x20 DUP4 ADD MSTORE PUSH2 0xE50 DUP2 DUP6 PUSH2 0x7CD JUMP JUMPDEST SWAP1 POP PUSH2 0xE5F PUSH1 0x40 DUP4 ADD DUP5 PUSH2 0x806 JUMP JUMPDEST SWAP5 SWAP4 POP POP POP POP JUMP INVALID LOG2 PUSH5 0x6970667358 0x22 SLT KECCAK256 PUSH14 0x3AABC11B449D46EE0AAB92323514 PUSH19 0xF424497B446295F9834939324AE30B4C64736F PUSH13 0x63430008180033000000000000 "},"methodIdentifiers":{"completeMilestone(uint256)":"852ea203","getCompanyDetails(uint256)":"daf64aa5","mintCompany(string,uint256)":"ce271c0d","updateValuation(uint256,uint256)":"6dc0fc6b"}}}}}