{
  "_format": "hh-sol-artifact-1",
  "contractName": "Box",
  "sourceName": "contracts/Box.sol",
  "abi": [
    {
      "inputs": [],
      "stateMutability": "nonpayable",
      "type": "constructor"
    },
    {
      "anonymous": false,
      "inputs": [
        {
          "indexed": false,
          "internalType": "uint256",
          "name": "tokenId",
          "type": "uint256"
        },
        {
          "indexed": false,
          "internalType": "string",
          "name": "name",
          "type": "string"
        },
        {
          "indexed": false,
          "internalType": "uint256",
          "name": "valuation",
          "type": "uint256"
        }
      ],
      "name": "CompanyCreated",
      "type": "event"
    },
    {
      "anonymous": false,
      "inputs": [
        {
          "indexed": false,
          "internalType": "uint256",
          "name": "tokenId",
          "type": "uint256"
        },
        {
          "indexed": false,
          "internalType": "uint256",
          "name": "milestonesCompleted",
          "type": "uint256"
        }
      ],
      "name": "MilestoneCompleted",
      "type": "event"
    },
    {
      "anonymous": false,
      "inputs": [
        {
          "indexed": false,
          "internalType": "uint256",
          "name": "tokenId",
          "type": "uint256"
        },
        {
          "indexed": false,
          "internalType": "uint256",
          "name": "newValuation",
          "type": "uint256"
        }
      ],
      "name": "ValuationUpdated",
      "type": "event"
    },
    {
      "inputs": [
        {
          "internalType": "address",
          "name": "owner",
          "type": "address"
        }
      ],
      "name": "balanceOf",
      "outputs": [
        {
          "internalType": "uint256",
          "name": "",
          "type": "uint256"
        }
      ],
      "stateMutability": "view",
      "type": "function"
    },
    {
      "inputs": [
        {
          "internalType": "uint256",
          "name": "tokenId",
          "type": "uint256"
        }
      ],
      "name": "completeMilestone",
      "outputs": [],
      "stateMutability": "nonpayable",
      "type": "function"
    },
    {
      "inputs": [
        {
          "internalType": "uint256",
          "name": "tokenId",
          "type": "uint256"
        }
      ],
      "name": "getCompanyDetails",
      "outputs": [
        {
          "internalType": "string",
          "name": "",
          "type": "string"
        },
        {
          "internalType": "uint256",
          "name": "",
          "type": "uint256"
        },
        {
          "internalType": "uint256",
          "name": "",
          "type": "uint256"
        }
      ],
      "stateMutability": "view",
      "type": "function"
    },
    {
      "inputs": [
        {
          "internalType": "string",
          "name": "companyName",
          "type": "string"
        }
      ],
      "name": "getTokenIdByName",
      "outputs": [
        {
          "internalType": "uint256",
          "name": "",
          "type": "uint256"
        }
      ],
      "stateMutability": "view",
      "type": "function"
    },
    {
      "inputs": [
        {
          "internalType": "string",
          "name": "name",
          "type": "string"
        },
        {
          "internalType": "uint256",
          "name": "initialValuation",
          "type": "uint256"
        }
      ],
      "name": "mintCompany",
      "outputs": [],
      "stateMutability": "nonpayable",
      "type": "function"
    },
    {
      "inputs": [
        {
          "internalType": "uint256",
          "name": "tokenId",
          "type": "uint256"
        },
        {
          "internalType": "uint256",
          "name": "newValuation",
          "type": "uint256"
        }
      ],
      "name": "updateValuation",
      "outputs": [],
      "stateMutability": "nonpayable",
      "type": "function"
    }
  ],
  "bytecode": "0x608060405234801561001057600080fd5b50611114806100206000396000f3fe608060405234801561001057600080fd5b50600436106100625760003560e01c80636dc0fc6b1461006757806370a0823114610083578063852ea203146100b3578063ce271c0d146100cf578063daf64aa5146100eb578063db7a298e1461011d575b600080fd5b610081600480360381019061007c91906106fb565b61014d565b005b61009d60048036038101906100989190610799565b6101e9565b6040516100aa91906107d5565b60405180910390f35b6100cd60048036038101906100c891906107f0565b610232565b005b6100e960048036038101906100e49190610963565b610323565b005b610105600480360381019061010091906107f0565b6104fb565b60405161011493929190610a3e565b60405180910390f35b61013760048036038101906101329190610a7c565b610629565b60405161014491906107d5565b60405180910390f35b6000548210610191576040517f08c379a000000000000000000000000000000000000000000000000000000000815260040161018890610b11565b60405180910390fd5b8060016000848152602001908152602001600020600101819055507f8d45721c0edcd094d637f66e971ce1167f974eed315c9a31b6ce145067760acc82826040516101dd929190610b31565b60405180910390a15050565b6000600260008373ffffffffffffffffffffffffffffffffffffffff1673ffffffffffffffffffffffffffffffffffffffff168152602001908152602001600020549050919050565b6000548110610276576040517f08c379a000000000000000000000000000000000000000000000000000000000815260040161026d90610b11565b60405180910390fd5b60016000828152602001908152602001600020600201600081548092919061029d90610b89565b91905055506113886001600083815260200190815260200160002060010160008282546102ca9190610bd1565b925050819055507f1b7218c0ac23ea9cbe4df603d2b340fbf469a115b73ea3d11460727f445d6be1816001600084815260200190815260200160002060020154604051610318929190610b31565b60405180910390a150565b6000825111610367576040517f08c379a000000000000000000000000000000000000000000000000000000000815260040161035e90610c51565b60405180910390fd5b60006003836040516103799190610cad565b908152602001604051809103902054146103c8576040517f08c379a00000000000000000000000000000000000000000000000000000000081526004016103bf90610d36565b60405180910390fd5b600080549050604051806060016040528084815260200183815260200160008152506001600083815260200190815260200160002060008201518160000190816104129190610f62565b5060208201518160010155604082015181600201559050508060038460405161043b9190610cad565b90815260200160405180910390208190555060008081548092919061045f90610b89565b91905055506001600260003373ffffffffffffffffffffffffffffffffffffffff1673ffffffffffffffffffffffffffffffffffffffff16815260200190815260200160002060008282546104b49190610bd1565b925050819055507fd1626da1bd8e455cc3bfd164e6602b3ac7b6a25e98dad1ef603b0914c739546b8184846040516104ee93929190611034565b60405180910390a1505050565b60606000806000548410610544576040517f08c379a000000000000000000000000000000000000000000000000000000000815260040161053b90610b11565b60405180910390fd5b60006001600086815260200190815260200160002060405180606001604052908160008201805461057490610d85565b80601f01602080910402602001604051908101604052809291908181526020018280546105a090610d85565b80156105ed5780601f106105c2576101008083540402835291602001916105ed565b820191906000526020600020905b8154815290600101906020018083116105d057829003601f168201915b50505050508152602001600182015481526020016002820154815250509050806000015181602001518260400151935093509350509193909250565b60008060038360405161063c9190610cad565b9081526020016040518091039020540361068b576040517f08c379a0000000000000000000000000000000000000000000000000000000008152600401610682906110be565b60405180910390fd5b60038260405161069b9190610cad565b9081526020016040518091039020549050919050565b6000604051905090565b600080fd5b600080fd5b6000819050919050565b6106d8816106c5565b81146106e357600080fd5b50565b6000813590506106f5816106cf565b92915050565b60008060408385031215610712576107116106bb565b5b6000610720858286016106e6565b9250506020610731858286016106e6565b9150509250929050565b600073ffffffffffffffffffffffffffffffffffffffff82169050919050565b60006107668261073b565b9050919050565b6107768161075b565b811461078157600080fd5b50565b6000813590506107938161076d565b92915050565b6000602082840312156107af576107ae6106bb565b5b60006107bd84828501610784565b91505092915050565b6107cf816106c5565b82525050565b60006020820190506107ea60008301846107c6565b92915050565b600060208284031215610806576108056106bb565b5b6000610814848285016106e6565b91505092915050565b600080fd5b600080fd5b6000601f19601f8301169050919050565b7f4e487b7100000000000000000000000000000000000000000000000000000000600052604160045260246000fd5b61087082610827565b810181811067ffffffffffffffff8211171561088f5761088e610838565b5b80604052505050565b60006108a26106b1565b90506108ae8282610867565b919050565b600067ffffffffffffffff8211156108ce576108cd610838565b5b6108d782610827565b9050602081019050919050565b82818337600083830152505050565b6000610906610901846108b3565b610898565b90508281526020810184848401111561092257610921610822565b5b61092d8482856108e4565b509392505050565b600082601f83011261094a5761094961081d565b5b813561095a8482602086016108f3565b91505092915050565b6000806040838503121561097a576109796106bb565b5b600083013567ffffffffffffffff811115610998576109976106c0565b5b6109a485828601610935565b92505060206109b5858286016106e6565b9150509250929050565b600081519050919050565b600082825260208201905092915050565b60005b838110156109f95780820151818401526020810190506109de565b60008484015250505050565b6000610a10826109bf565b610a1a81856109ca565b9350610a2a8185602086016109db565b610a3381610827565b840191505092915050565b60006060820190508181036000830152610a588186610a05565b9050610a6760208301856107c6565b610a7460408301846107c6565b949350505050565b600060208284031215610a9257610a916106bb565b5b600082013567ffffffffffffffff811115610ab057610aaf6106c0565b5b610abc84828501610935565b91505092915050565b7f546f6b656e20646f6573206e6f74206578697374000000000000000000000000600082015250565b6000610afb6014836109ca565b9150610b0682610ac5565b602082019050919050565b60006020820190508181036000830152610b2a81610aee565b9050919050565b6000604082019050610b4660008301856107c6565b610b5360208301846107c6565b9392505050565b7f4e487b7100000000000000000000000000000000000000000000000000000000600052601160045260246000fd5b6000610b94826106c5565b91507fffffffffffffffffffffffffffffffffffffffffffffffffffffffffffffffff8203610bc657610bc5610b5a565b5b600182019050919050565b6000610bdc826106c5565b9150610be7836106c5565b9250828201905080821115610bff57610bfe610b5a565b5b92915050565b7f436f6d70616e79206e616d652063616e6e6f7420626520656d70747900000000600082015250565b6000610c3b601c836109ca565b9150610c4682610c05565b602082019050919050565b60006020820190508181036000830152610c6a81610c2e565b9050919050565b600081905092915050565b6000610c87826109bf565b610c918185610c71565b9350610ca18185602086016109db565b80840191505092915050565b6000610cb98284610c7c565b915081905092915050565b7f4120636f6d70616e7920776974682074686973206e616d6520616c726561647960008201527f2065786973747300000000000000000000000000000000000000000000000000602082015250565b6000610d206027836109ca565b9150610d2b82610cc4565b604082019050919050565b60006020820190508181036000830152610d4f81610d13565b9050919050565b7f4e487b7100000000000000000000000000000000000000000000000000000000600052602260045260246000fd5b60006002820490506001821680610d9d57607f821691505b602082108103610db057610daf610d56565b5b50919050565b60008190508160005260206000209050919050565b60006020601f8301049050919050565b600082821b905092915050565b600060088302610e187fffffffffffffffffffffffffffffffffffffffffffffffffffffffffffffffff82610ddb565b610e228683610ddb565b95508019841693508086168417925050509392505050565b6000819050919050565b6000610e5f610e5a610e55846106c5565b610e3a565b6106c5565b9050919050565b6000819050919050565b610e7983610e44565b610e8d610e8582610e66565b848454610de8565b825550505050565b600090565b610ea2610e95565b610ead818484610e70565b505050565b5b81811015610ed157610ec6600082610e9a565b600181019050610eb3565b5050565b601f821115610f1657610ee781610db6565b610ef084610dcb565b81016020851015610eff578190505b610f13610f0b85610dcb565b830182610eb2565b50505b505050565b600082821c905092915050565b6000610f3960001984600802610f1b565b1980831691505092915050565b6000610f528383610f28565b9150826002028217905092915050565b610f6b826109bf565b67ffffffffffffffff811115610f8457610f83610838565b5b610f8e8254610d85565b610f99828285610ed5565b600060209050601f831160018114610fcc5760008415610fba578287015190505b610fc48582610f46565b86555061102c565b601f198416610fda86610db6565b60005b8281101561100257848901518255600182019150602085019450602081019050610fdd565b8683101561101f578489015161101b601f891682610f28565b8355505b6001600288020188555050505b505050505050565b600060608201905061104960008301866107c6565b818103602083015261105b8185610a05565b905061106a60408301846107c6565b949350505050565b7f436f6d70616e79206e6f7420666f756e64000000000000000000000000000000600082015250565b60006110a86011836109ca565b91506110b382611072565b602082019050919050565b600060208201905081810360008301526110d78161109b565b905091905056fea26469706673582212200d801ed9ba100354b4a048d6a7baeb0664d06035db0abf81ab3d06421da02ea964736f6c63430008180033",
  "linkReferences": {},
  "deployedLinkReferences": {}
}